{
	"FundMe.sol": {
		"FundMe": {
			"abi": [
				{
					"inputs": [
						{
							"internalType": "address",
							"name": "",
							"type": "address"
						}
					],
					"name": "addressToAmountFunded",
					"outputs": [
						{
							"internalType": "uint256",
							"name": "",
							"type": "uint256"
						}
					],
					"stateMutability": "view",
					"type": "function"
				},
				{
					"inputs": [],
					"name": "fund",
					"outputs": [],
					"stateMutability": "payable",
					"type": "function"
				},
				{
					"inputs": [
						{
							"internalType": "uint256",
							"name": "",
							"type": "uint256"
						}
					],
					"name": "funders",
					"outputs": [
						{
							"internalType": "address",
							"name": "",
							"type": "address"
						}
					],
					"stateMutability": "view",
					"type": "function"
				},
				{
					"inputs": [],
					"name": "minusd",
					"outputs": [
						{
							"internalType": "uint256",
							"name": "",
							"type": "uint256"
						}
					],
					"stateMutability": "view",
					"type": "function"
				}
			],
			"devdoc": {
				"kind": "dev",
				"methods": {},
				"version": 1
			},
			"evm": {
				"assembly": "    /* \"FundMe.sol\":113:526  contract FundMe{... */\n  mstore(0x40, 0x80)\n    /* \"FundMe.sol\":198:202  5e18 */\n  0x4563918244f40000\n    /* \"FundMe.sol\":174:202  uint256 public minusd = 5e18 */\n  0x00\n  sstore\n    /* \"FundMe.sol\":113:526  contract FundMe{... */\n  callvalue\n  dup1\n  iszero\n  tag_1\n  jumpi\n  0x00\n  dup1\n  revert\ntag_1:\n  pop\n  dataSize(sub_0)\n  dup1\n  dataOffset(sub_0)\n  0x00\n  codecopy\n  0x00\n  return\nstop\n\nsub_0: assembly {\n        /* \"FundMe.sol\":113:526  contract FundMe{... */\n      mstore(0x40, 0x80)\n      jumpi(tag_1, lt(calldatasize, 0x04))\n      shr(0xe0, calldataload(0x00))\n      dup1\n      0x2578b86a\n      eq\n      tag_2\n      jumpi\n      dup1\n      0x3e47d6f3\n      eq\n      tag_3\n      jumpi\n      dup1\n      0xb60d4288\n      eq\n      tag_4\n      jumpi\n      dup1\n      0xdc0d3dff\n      eq\n      tag_5\n      jumpi\n    tag_1:\n      0x00\n      dup1\n      revert\n        /* \"FundMe.sol\":174:202  uint256 public minusd = 5e18 */\n    tag_2:\n      callvalue\n      dup1\n      iszero\n      tag_6\n      jumpi\n      0x00\n      dup1\n      revert\n    tag_6:\n      pop\n      tag_7\n      tag_8\n      jump\t// in\n    tag_7:\n      mload(0x40)\n      tag_9\n      swap2\n      swap1\n      tag_10\n      jump\t// in\n    tag_9:\n      mload(0x40)\n      dup1\n      swap2\n      sub\n      swap1\n      return\n        /* \"FundMe.sol\":242:299  mapping (address => uint256) public addressToAmountFunded */\n    tag_3:\n      callvalue\n      dup1\n      iszero\n      tag_11\n      jumpi\n      0x00\n      dup1\n      revert\n    tag_11:\n      pop\n      tag_12\n      0x04\n      dup1\n      calldatasize\n      sub\n      dup2\n      add\n      swap1\n      tag_13\n      swap2\n      swap1\n      tag_14\n      jump\t// in\n    tag_13:\n      tag_15\n      jump\t// in\n    tag_12:\n      mload(0x40)\n      tag_16\n      swap2\n      swap1\n      tag_10\n      jump\t// in\n    tag_16:\n      mload(0x40)\n      dup1\n      swap2\n      sub\n      swap1\n      return\n        /* \"FundMe.sol\":306:478  function fund() public payable {... */\n    tag_4:\n      tag_17\n      tag_18\n      jump\t// in\n    tag_17:\n      stop\n        /* \"FundMe.sol\":211:235  address[] public funders */\n    tag_5:\n      callvalue\n      dup1\n      iszero\n      tag_19\n      jumpi\n      0x00\n      dup1\n      revert\n    tag_19:\n      pop\n      tag_20\n      0x04\n      dup1\n      calldatasize\n      sub\n      dup2\n      add\n      swap1\n      tag_21\n      swap2\n      swap1\n      tag_22\n      jump\t// in\n    tag_21:\n      tag_23\n      jump\t// in\n    tag_20:\n      mload(0x40)\n      tag_24\n      swap2\n      swap1\n      tag_25\n      jump\t// in\n    tag_24:\n      mload(0x40)\n      dup1\n      swap2\n      sub\n      swap1\n      return\n        /* \"FundMe.sol\":174:202  uint256 public minusd = 5e18 */\n    tag_8:\n      sload(0x00)\n      dup2\n      jump\t// out\n        /* \"FundMe.sol\":242:299  mapping (address => uint256) public addressToAmountFunded */\n    tag_15:\n      mstore(0x20, 0x02)\n      dup1\n      0x00\n      mstore\n      keccak256(0x00, 0x40)\n      0x00\n      swap2\n      pop\n      swap1\n      pop\n      sload\n      dup2\n      jump\t// out\n        /* \"FundMe.sol\":306:478  function fund() public payable {... */\n    tag_18:\n        /* \"FundMe.sol\":388:394  minusd */\n      sload(0x00)\n        /* \"FundMe.sol\":356:385  msg.value.getConversionRate() */\n      tag_27\n        /* \"FundMe.sol\":356:365  msg.value */\n      callvalue\n        /* \"FundMe.sol\":356:383  msg.value.getConversionRate */\n      tag_28\n        /* \"FundMe.sol\":356:385  msg.value.getConversionRate() */\n      jump\t// in\n    tag_27:\n        /* \"FundMe.sol\":356:394  msg.value.getConversionRate() > minusd */\n      gt\n        /* \"FundMe.sol\":348:413  require(msg.value.getConversionRate() > minusd, \"not enough eth\") */\n      tag_29\n      jumpi\n      mload(0x40)\n      0x08c379a000000000000000000000000000000000000000000000000000000000\n      dup2\n      mstore\n      0x04\n      add\n      tag_30\n      swap1\n      tag_31\n      jump\t// in\n    tag_30:\n      mload(0x40)\n      dup1\n      swap2\n      sub\n      swap1\n      revert\n    tag_29:\n        /* \"FundMe.sol\":461:470  msg.value */\n      callvalue\n        /* \"FundMe.sol\":424:445  addressToAmountFunded */\n      0x02\n        /* \"FundMe.sol\":424:457  addressToAmountFunded[msg.sender] */\n      0x00\n        /* \"FundMe.sol\":446:456  msg.sender */\n      caller\n        /* \"FundMe.sol\":424:457  addressToAmountFunded[msg.sender] */\n      0xffffffffffffffffffffffffffffffffffffffff\n      and\n      0xffffffffffffffffffffffffffffffffffffffff\n      and\n      dup2\n      mstore\n      0x20\n      add\n      swap1\n      dup2\n      mstore\n      0x20\n      add\n      0x00\n      keccak256\n      0x00\n        /* \"FundMe.sol\":424:470  addressToAmountFunded[msg.sender] += msg.value */\n      dup3\n      dup3\n      sload\n      tag_32\n      swap2\n      swap1\n      tag_33\n      jump\t// in\n    tag_32:\n      swap3\n      pop\n      pop\n      dup2\n      swap1\n      sstore\n      pop\n        /* \"FundMe.sol\":306:478  function fund() public payable {... */\n      jump\t// out\n        /* \"FundMe.sol\":211:235  address[] public funders */\n    tag_23:\n      0x01\n      dup2\n      dup2\n      sload\n      dup2\n      lt\n      tag_34\n      jumpi\n      0x00\n      dup1\n      revert\n    tag_34:\n      swap1\n      0x00\n      mstore\n      keccak256(0x00, 0x20)\n      add\n      0x00\n      swap2\n      pop\n      sload\n      swap1\n      0x0100\n      exp\n      swap1\n      div\n      0xffffffffffffffffffffffffffffffffffffffff\n      and\n      dup2\n      jump\t// out\n        /* \"PriceConvertor.sol\":583:789  function getConversionRate(uint ethamount) internal view returns (uint256){... */\n    tag_28:\n        /* \"PriceConvertor.sol\":649:656  uint256 */\n      0x00\n        /* \"PriceConvertor.sol\":668:681  uint256 price */\n      dup1\n        /* \"PriceConvertor.sol\":684:694  getPrice() */\n      tag_37\n        /* \"PriceConvertor.sol\":684:692  getPrice */\n      tag_38\n        /* \"PriceConvertor.sol\":684:694  getPrice() */\n      jump\t// in\n    tag_37:\n        /* \"PriceConvertor.sol\":668:694  uint256 price = getPrice() */\n      swap1\n      pop\n        /* \"PriceConvertor.sol\":705:723  uint256 priceinusd */\n      0x00\n        /* \"PriceConvertor.sol\":746:750  1e18 */\n      0x0de0b6b3a7640000\n        /* \"PriceConvertor.sol\":735:744  ethamount */\n      dup5\n        /* \"PriceConvertor.sol\":727:732  price */\n      dup4\n        /* \"PriceConvertor.sol\":727:744  price * ethamount */\n      tag_39\n      swap2\n      swap1\n      tag_40\n      jump\t// in\n    tag_39:\n        /* \"PriceConvertor.sol\":726:750  (price * ethamount)/1e18 */\n      tag_41\n      swap2\n      swap1\n      tag_42\n      jump\t// in\n    tag_41:\n        /* \"PriceConvertor.sol\":705:750  uint256 priceinusd = (price * ethamount)/1e18 */\n      swap1\n      pop\n        /* \"PriceConvertor.sol\":768:778  priceinusd */\n      dup1\n        /* \"PriceConvertor.sol\":761:778  return priceinusd */\n      swap3\n      pop\n      pop\n      pop\n        /* \"PriceConvertor.sol\":583:789  function getConversionRate(uint ethamount) internal view returns (uint256){... */\n      swap2\n      swap1\n      pop\n      jump\t// out\n        /* \"PriceConvertor.sol\":205:577  function getPrice() internal view returns(uint256) {... */\n    tag_38:\n        /* \"PriceConvertor.sol\":247:254  uint256 */\n      0x00\n        /* \"PriceConvertor.sol\":326:357  AggregatorV3Interface priceFeed */\n      dup1\n        /* \"PriceConvertor.sol\":382:424  0x694AA1769357215DE4FAC081bf1f309aDC325306 */\n      0x694aa1769357215de4fac081bf1f309adc325306\n        /* \"PriceConvertor.sol\":326:425  AggregatorV3Interface priceFeed = AggregatorV3Interface(0x694AA1769357215DE4FAC081bf1f309aDC325306) */\n      swap1\n      pop\n        /* \"PriceConvertor.sol\":438:450  int256 price */\n      0x00\n        /* \"PriceConvertor.sol\":455:464  priceFeed */\n      dup2\n        /* \"PriceConvertor.sol\":455:480  priceFeed.latestRoundData */\n      0xffffffffffffffffffffffffffffffffffffffff\n      and\n      0xfeaf968c\n        /* \"PriceConvertor.sol\":455:482  priceFeed.latestRoundData() */\n      mload(0x40)\n      dup2\n      0xffffffff\n      and\n      0xe0\n      shl\n      dup2\n      mstore\n      0x04\n      add\n      0xa0\n      mload(0x40)\n      dup1\n      dup4\n      sub\n      dup2\n      dup7\n      dup1\n      extcodesize\n      iszero\n      dup1\n      iszero\n      tag_44\n      jumpi\n      0x00\n      dup1\n      revert\n    tag_44:\n      pop\n      gas\n      staticcall\n      iszero\n      dup1\n      iszero\n      tag_46\n      jumpi\n      returndatasize\n      0x00\n      dup1\n      returndatacopy\n      revert(0x00, returndatasize)\n    tag_46:\n      pop\n      pop\n      pop\n      pop\n      mload(0x40)\n      returndatasize\n      not(0x1f)\n      0x1f\n      dup3\n      add\n      and\n      dup3\n      add\n      dup1\n      0x40\n      mstore\n      pop\n      dup2\n      add\n      swap1\n      tag_47\n      swap2\n      swap1\n      tag_48\n      jump\t// in\n    tag_47:\n        /* \"PriceConvertor.sol\":436:482  (,int256 price,,,)=priceFeed.latestRoundData() */\n      pop\n      pop\n      pop\n      swap2\n      pop\n      pop\n        /* \"PriceConvertor.sol\":564:568  1e10 */\n      0x02540be400\n        /* \"PriceConvertor.sol\":556:561  price */\n      dup2\n        /* \"PriceConvertor.sol\":556:568  price * 1e10 */\n      tag_49\n      swap2\n      swap1\n      tag_50\n      jump\t// in\n    tag_49:\n        /* \"PriceConvertor.sol\":541:569  return uint256(price * 1e10) */\n      swap3\n      pop\n      pop\n      pop\n        /* \"PriceConvertor.sol\":205:577  function getPrice() internal view returns(uint256) {... */\n      swap1\n      jump\t// out\n        /* \"#utility.yul\":7:84   */\n    tag_51:\n        /* \"#utility.yul\":44:51   */\n      0x00\n        /* \"#utility.yul\":73:78   */\n      dup2\n        /* \"#utility.yul\":62:78   */\n      swap1\n      pop\n        /* \"#utility.yul\":7:84   */\n      swap2\n      swap1\n      pop\n      jump\t// out\n        /* \"#utility.yul\":90:208   */\n    tag_52:\n        /* \"#utility.yul\":177:201   */\n      tag_78\n        /* \"#utility.yul\":195:200   */\n      dup2\n        /* \"#utility.yul\":177:201   */\n      tag_51\n      jump\t// in\n    tag_78:\n        /* \"#utility.yul\":172:175   */\n      dup3\n        /* \"#utility.yul\":165:202   */\n      mstore\n        /* \"#utility.yul\":90:208   */\n      pop\n      pop\n      jump\t// out\n        /* \"#utility.yul\":214:436   */\n    tag_10:\n        /* \"#utility.yul\":307:311   */\n      0x00\n        /* \"#utility.yul\":345:347   */\n      0x20\n        /* \"#utility.yul\":334:343   */\n      dup3\n        /* \"#utility.yul\":330:348   */\n      add\n        /* \"#utility.yul\":322:348   */\n      swap1\n      pop\n        /* \"#utility.yul\":358:429   */\n      tag_80\n        /* \"#utility.yul\":426:427   */\n      0x00\n        /* \"#utility.yul\":415:424   */\n      dup4\n        /* \"#utility.yul\":411:428   */\n      add\n        /* \"#utility.yul\":402:408   */\n      dup5\n        /* \"#utility.yul\":358:429   */\n      tag_52\n      jump\t// in\n    tag_80:\n        /* \"#utility.yul\":214:436   */\n      swap3\n      swap2\n      pop\n      pop\n      jump\t// out\n        /* \"#utility.yul\":523:640   */\n    tag_54:\n        /* \"#utility.yul\":632:633   */\n      0x00\n        /* \"#utility.yul\":629:630   */\n      dup1\n        /* \"#utility.yul\":622:634   */\n      revert\n        /* \"#utility.yul\":769:895   */\n    tag_56:\n        /* \"#utility.yul\":806:813   */\n      0x00\n        /* \"#utility.yul\":846:888   */\n      0xffffffffffffffffffffffffffffffffffffffff\n        /* \"#utility.yul\":839:844   */\n      dup3\n        /* \"#utility.yul\":835:889   */\n      and\n        /* \"#utility.yul\":824:889   */\n      swap1\n      pop\n        /* \"#utility.yul\":769:895   */\n      swap2\n      swap1\n      pop\n      jump\t// out\n        /* \"#utility.yul\":901:997   */\n    tag_57:\n        /* \"#utility.yul\":938:945   */\n      0x00\n        /* \"#utility.yul\":967:991   */\n      tag_86\n        /* \"#utility.yul\":985:990   */\n      dup3\n        /* \"#utility.yul\":967:991   */\n      tag_56\n      jump\t// in\n    tag_86:\n        /* \"#utility.yul\":956:991   */\n      swap1\n      pop\n        /* \"#utility.yul\":901:997   */\n      swap2\n      swap1\n      pop\n      jump\t// out\n        /* \"#utility.yul\":1003:1125   */\n    tag_58:\n        /* \"#utility.yul\":1076:1100   */\n      tag_88\n        /* \"#utility.yul\":1094:1099   */\n      dup2\n        /* \"#utility.yul\":1076:1100   */\n      tag_57\n      jump\t// in\n    tag_88:\n        /* \"#utility.yul\":1069:1074   */\n      dup2\n        /* \"#utility.yul\":1066:1101   */\n      eq\n        /* \"#utility.yul\":1056:1119   */\n      tag_89\n      jumpi\n        /* \"#utility.yul\":1115:1116   */\n      0x00\n        /* \"#utility.yul\":1112:1113   */\n      dup1\n        /* \"#utility.yul\":1105:1117   */\n      revert\n        /* \"#utility.yul\":1056:1119   */\n    tag_89:\n        /* \"#utility.yul\":1003:1125   */\n      pop\n      jump\t// out\n        /* \"#utility.yul\":1131:1270   */\n    tag_59:\n        /* \"#utility.yul\":1177:1182   */\n      0x00\n        /* \"#utility.yul\":1215:1221   */\n      dup2\n        /* \"#utility.yul\":1202:1222   */\n      calldataload\n        /* \"#utility.yul\":1193:1222   */\n      swap1\n      pop\n        /* \"#utility.yul\":1231:1264   */\n      tag_91\n        /* \"#utility.yul\":1258:1263   */\n      dup2\n        /* \"#utility.yul\":1231:1264   */\n      tag_58\n      jump\t// in\n    tag_91:\n        /* \"#utility.yul\":1131:1270   */\n      swap3\n      swap2\n      pop\n      pop\n      jump\t// out\n        /* \"#utility.yul\":1276:1605   */\n    tag_14:\n        /* \"#utility.yul\":1335:1341   */\n      0x00\n        /* \"#utility.yul\":1384:1386   */\n      0x20\n        /* \"#utility.yul\":1372:1381   */\n      dup3\n        /* \"#utility.yul\":1363:1370   */\n      dup5\n        /* \"#utility.yul\":1359:1382   */\n      sub\n        /* \"#utility.yul\":1355:1387   */\n      slt\n        /* \"#utility.yul\":1352:1471   */\n      iszero\n      tag_93\n      jumpi\n        /* \"#utility.yul\":1390:1469   */\n      tag_94\n      tag_54\n      jump\t// in\n    tag_94:\n        /* \"#utility.yul\":1352:1471   */\n    tag_93:\n        /* \"#utility.yul\":1510:1511   */\n      0x00\n        /* \"#utility.yul\":1535:1588   */\n      tag_95\n        /* \"#utility.yul\":1580:1587   */\n      dup5\n        /* \"#utility.yul\":1571:1577   */\n      dup3\n        /* \"#utility.yul\":1560:1569   */\n      dup6\n        /* \"#utility.yul\":1556:1578   */\n      add\n        /* \"#utility.yul\":1535:1588   */\n      tag_59\n      jump\t// in\n    tag_95:\n        /* \"#utility.yul\":1525:1588   */\n      swap2\n      pop\n        /* \"#utility.yul\":1481:1598   */\n      pop\n        /* \"#utility.yul\":1276:1605   */\n      swap3\n      swap2\n      pop\n      pop\n      jump\t// out\n        /* \"#utility.yul\":1611:1733   */\n    tag_60:\n        /* \"#utility.yul\":1684:1708   */\n      tag_97\n        /* \"#utility.yul\":1702:1707   */\n      dup2\n        /* \"#utility.yul\":1684:1708   */\n      tag_51\n      jump\t// in\n    tag_97:\n        /* \"#utility.yul\":1677:1682   */\n      dup2\n        /* \"#utility.yul\":1674:1709   */\n      eq\n        /* \"#utility.yul\":1664:1727   */\n      tag_98\n      jumpi\n        /* \"#utility.yul\":1723:1724   */\n      0x00\n        /* \"#utility.yul\":1720:1721   */\n      dup1\n        /* \"#utility.yul\":1713:1725   */\n      revert\n        /* \"#utility.yul\":1664:1727   */\n    tag_98:\n        /* \"#utility.yul\":1611:1733   */\n      pop\n      jump\t// out\n        /* \"#utility.yul\":1739:1878   */\n    tag_61:\n        /* \"#utility.yul\":1785:1790   */\n      0x00\n        /* \"#utility.yul\":1823:1829   */\n      dup2\n        /* \"#utility.yul\":1810:1830   */\n      calldataload\n        /* \"#utility.yul\":1801:1830   */\n      swap1\n      pop\n        /* \"#utility.yul\":1839:1872   */\n      tag_100\n        /* \"#utility.yul\":1866:1871   */\n      dup2\n        /* \"#utility.yul\":1839:1872   */\n      tag_60\n      jump\t// in\n    tag_100:\n        /* \"#utility.yul\":1739:1878   */\n      swap3\n      swap2\n      pop\n      pop\n      jump\t// out\n        /* \"#utility.yul\":1884:2213   */\n    tag_22:\n        /* \"#utility.yul\":1943:1949   */\n      0x00\n        /* \"#utility.yul\":1992:1994   */\n      0x20\n        /* \"#utility.yul\":1980:1989   */\n      dup3\n        /* \"#utility.yul\":1971:1978   */\n      dup5\n        /* \"#utility.yul\":1967:1990   */\n      sub\n        /* \"#utility.yul\":1963:1995   */\n      slt\n        /* \"#utility.yul\":1960:2079   */\n      iszero\n      tag_102\n      jumpi\n        /* \"#utility.yul\":1998:2077   */\n      tag_103\n      tag_54\n      jump\t// in\n    tag_103:\n        /* \"#utility.yul\":1960:2079   */\n    tag_102:\n        /* \"#utility.yul\":2118:2119   */\n      0x00\n        /* \"#utility.yul\":2143:2196   */\n      tag_104\n        /* \"#utility.yul\":2188:2195   */\n      dup5\n        /* \"#utility.yul\":2179:2185   */\n      dup3\n        /* \"#utility.yul\":2168:2177   */\n      dup6\n        /* \"#utility.yul\":2164:2186   */\n      add\n        /* \"#utility.yul\":2143:2196   */\n      tag_61\n      jump\t// in\n    tag_104:\n        /* \"#utility.yul\":2133:2196   */\n      swap2\n      pop\n        /* \"#utility.yul\":2089:2206   */\n      pop\n        /* \"#utility.yul\":1884:2213   */\n      swap3\n      swap2\n      pop\n      pop\n      jump\t// out\n        /* \"#utility.yul\":2219:2337   */\n    tag_62:\n        /* \"#utility.yul\":2306:2330   */\n      tag_106\n        /* \"#utility.yul\":2324:2329   */\n      dup2\n        /* \"#utility.yul\":2306:2330   */\n      tag_57\n      jump\t// in\n    tag_106:\n        /* \"#utility.yul\":2301:2304   */\n      dup3\n        /* \"#utility.yul\":2294:2331   */\n      mstore\n        /* \"#utility.yul\":2219:2337   */\n      pop\n      pop\n      jump\t// out\n        /* \"#utility.yul\":2343:2565   */\n    tag_25:\n        /* \"#utility.yul\":2436:2440   */\n      0x00\n        /* \"#utility.yul\":2474:2476   */\n      0x20\n        /* \"#utility.yul\":2463:2472   */\n      dup3\n        /* \"#utility.yul\":2459:2477   */\n      add\n        /* \"#utility.yul\":2451:2477   */\n      swap1\n      pop\n        /* \"#utility.yul\":2487:2558   */\n      tag_108\n        /* \"#utility.yul\":2555:2556   */\n      0x00\n        /* \"#utility.yul\":2544:2553   */\n      dup4\n        /* \"#utility.yul\":2540:2557   */\n      add\n        /* \"#utility.yul\":2531:2537   */\n      dup5\n        /* \"#utility.yul\":2487:2558   */\n      tag_62\n      jump\t// in\n    tag_108:\n        /* \"#utility.yul\":2343:2565   */\n      swap3\n      swap2\n      pop\n      pop\n      jump\t// out\n        /* \"#utility.yul\":2571:2740   */\n    tag_63:\n        /* \"#utility.yul\":2655:2666   */\n      0x00\n        /* \"#utility.yul\":2689:2695   */\n      dup3\n        /* \"#utility.yul\":2684:2687   */\n      dup3\n        /* \"#utility.yul\":2677:2696   */\n      mstore\n        /* \"#utility.yul\":2729:2733   */\n      0x20\n        /* \"#utility.yul\":2724:2727   */\n      dup3\n        /* \"#utility.yul\":2720:2734   */\n      add\n        /* \"#utility.yul\":2705:2734   */\n      swap1\n      pop\n        /* \"#utility.yul\":2571:2740   */\n      swap3\n      swap2\n      pop\n      pop\n      jump\t// out\n        /* \"#utility.yul\":2746:2910   */\n    tag_64:\n        /* \"#utility.yul\":2886:2902   */\n      0x6e6f7420656e6f75676820657468000000000000000000000000000000000000\n        /* \"#utility.yul\":2882:2883   */\n      0x00\n        /* \"#utility.yul\":2874:2880   */\n      dup3\n        /* \"#utility.yul\":2870:2884   */\n      add\n        /* \"#utility.yul\":2863:2903   */\n      mstore\n        /* \"#utility.yul\":2746:2910   */\n      pop\n      jump\t// out\n        /* \"#utility.yul\":2916:3282   */\n    tag_65:\n        /* \"#utility.yul\":3058:3061   */\n      0x00\n        /* \"#utility.yul\":3079:3146   */\n      tag_112\n        /* \"#utility.yul\":3143:3145   */\n      0x0e\n        /* \"#utility.yul\":3138:3141   */\n      dup4\n        /* \"#utility.yul\":3079:3146   */\n      tag_63\n      jump\t// in\n    tag_112:\n        /* \"#utility.yul\":3072:3146   */\n      swap2\n      pop\n        /* \"#utility.yul\":3155:3248   */\n      tag_113\n        /* \"#utility.yul\":3244:3247   */\n      dup3\n        /* \"#utility.yul\":3155:3248   */\n      tag_64\n      jump\t// in\n    tag_113:\n        /* \"#utility.yul\":3273:3275   */\n      0x20\n        /* \"#utility.yul\":3268:3271   */\n      dup3\n        /* \"#utility.yul\":3264:3276   */\n      add\n        /* \"#utility.yul\":3257:3276   */\n      swap1\n      pop\n        /* \"#utility.yul\":2916:3282   */\n      swap2\n      swap1\n      pop\n      jump\t// out\n        /* \"#utility.yul\":3288:3707   */\n    tag_31:\n        /* \"#utility.yul\":3454:3458   */\n      0x00\n        /* \"#utility.yul\":3492:3494   */\n      0x20\n        /* \"#utility.yul\":3481:3490   */\n      dup3\n        /* \"#utility.yul\":3477:3495   */\n      add\n        /* \"#utility.yul\":3469:3495   */\n      swap1\n      pop\n        /* \"#utility.yul\":3541:3550   */\n      dup2\n        /* \"#utility.yul\":3535:3539   */\n      dup2\n        /* \"#utility.yul\":3531:3551   */\n      sub\n        /* \"#utility.yul\":3527:3528   */\n      0x00\n        /* \"#utility.yul\":3516:3525   */\n      dup4\n        /* \"#utility.yul\":3512:3529   */\n      add\n        /* \"#utility.yul\":3505:3552   */\n      mstore\n        /* \"#utility.yul\":3569:3700   */\n      tag_115\n        /* \"#utility.yul\":3695:3699   */\n      dup2\n        /* \"#utility.yul\":3569:3700   */\n      tag_65\n      jump\t// in\n    tag_115:\n        /* \"#utility.yul\":3561:3700   */\n      swap1\n      pop\n        /* \"#utility.yul\":3288:3707   */\n      swap2\n      swap1\n      pop\n      jump\t// out\n        /* \"#utility.yul\":3713:3893   */\n    tag_66:\n        /* \"#utility.yul\":3761:3838   */\n      0x4e487b7100000000000000000000000000000000000000000000000000000000\n        /* \"#utility.yul\":3758:3759   */\n      0x00\n        /* \"#utility.yul\":3751:3839   */\n      mstore\n        /* \"#utility.yul\":3858:3862   */\n      0x11\n        /* \"#utility.yul\":3855:3856   */\n      0x04\n        /* \"#utility.yul\":3848:3863   */\n      mstore\n        /* \"#utility.yul\":3882:3886   */\n      0x24\n        /* \"#utility.yul\":3879:3880   */\n      0x00\n        /* \"#utility.yul\":3872:3887   */\n      revert\n        /* \"#utility.yul\":3899:4204   */\n    tag_33:\n        /* \"#utility.yul\":3939:3942   */\n      0x00\n        /* \"#utility.yul\":3958:3978   */\n      tag_118\n        /* \"#utility.yul\":3976:3977   */\n      dup3\n        /* \"#utility.yul\":3958:3978   */\n      tag_51\n      jump\t// in\n    tag_118:\n        /* \"#utility.yul\":3953:3978   */\n      swap2\n      pop\n        /* \"#utility.yul\":3992:4012   */\n      tag_119\n        /* \"#utility.yul\":4010:4011   */\n      dup4\n        /* \"#utility.yul\":3992:4012   */\n      tag_51\n      jump\t// in\n    tag_119:\n        /* \"#utility.yul\":3987:4012   */\n      swap3\n      pop\n        /* \"#utility.yul\":4146:4147   */\n      dup3\n        /* \"#utility.yul\":4078:4144   */\n      0xffffffffffffffffffffffffffffffffffffffffffffffffffffffffffffffff\n        /* \"#utility.yul\":4074:4148   */\n      sub\n        /* \"#utility.yul\":4071:4072   */\n      dup3\n        /* \"#utility.yul\":4068:4149   */\n      gt\n        /* \"#utility.yul\":4065:4172   */\n      iszero\n      tag_120\n      jumpi\n        /* \"#utility.yul\":4152:4170   */\n      tag_121\n      tag_66\n      jump\t// in\n    tag_121:\n        /* \"#utility.yul\":4065:4172   */\n    tag_120:\n        /* \"#utility.yul\":4196:4197   */\n      dup3\n        /* \"#utility.yul\":4193:4194   */\n      dup3\n        /* \"#utility.yul\":4189:4198   */\n      add\n        /* \"#utility.yul\":4182:4198   */\n      swap1\n      pop\n        /* \"#utility.yul\":3899:4204   */\n      swap3\n      swap2\n      pop\n      pop\n      jump\t// out\n        /* \"#utility.yul\":4210:4558   */\n    tag_40:\n        /* \"#utility.yul\":4250:4257   */\n      0x00\n        /* \"#utility.yul\":4273:4293   */\n      tag_123\n        /* \"#utility.yul\":4291:4292   */\n      dup3\n        /* \"#utility.yul\":4273:4293   */\n      tag_51\n      jump\t// in\n    tag_123:\n        /* \"#utility.yul\":4268:4293   */\n      swap2\n      pop\n        /* \"#utility.yul\":4307:4327   */\n      tag_124\n        /* \"#utility.yul\":4325:4326   */\n      dup4\n        /* \"#utility.yul\":4307:4327   */\n      tag_51\n      jump\t// in\n    tag_124:\n        /* \"#utility.yul\":4302:4327   */\n      swap3\n      pop\n        /* \"#utility.yul\":4495:4496   */\n      dup2\n        /* \"#utility.yul\":4427:4493   */\n      0xffffffffffffffffffffffffffffffffffffffffffffffffffffffffffffffff\n        /* \"#utility.yul\":4423:4497   */\n      div\n        /* \"#utility.yul\":4420:4421   */\n      dup4\n        /* \"#utility.yul\":4417:4498   */\n      gt\n        /* \"#utility.yul\":4412:4413   */\n      dup3\n        /* \"#utility.yul\":4405:4414   */\n      iszero\n        /* \"#utility.yul\":4398:4415   */\n      iszero\n        /* \"#utility.yul\":4394:4499   */\n      and\n        /* \"#utility.yul\":4391:4522   */\n      iszero\n      tag_125\n      jumpi\n        /* \"#utility.yul\":4502:4520   */\n      tag_126\n      tag_66\n      jump\t// in\n    tag_126:\n        /* \"#utility.yul\":4391:4522   */\n    tag_125:\n        /* \"#utility.yul\":4550:4551   */\n      dup3\n        /* \"#utility.yul\":4547:4548   */\n      dup3\n        /* \"#utility.yul\":4543:4552   */\n      mul\n        /* \"#utility.yul\":4532:4552   */\n      swap1\n      pop\n        /* \"#utility.yul\":4210:4558   */\n      swap3\n      swap2\n      pop\n      pop\n      jump\t// out\n        /* \"#utility.yul\":4564:4744   */\n    tag_67:\n        /* \"#utility.yul\":4612:4689   */\n      0x4e487b7100000000000000000000000000000000000000000000000000000000\n        /* \"#utility.yul\":4609:4610   */\n      0x00\n        /* \"#utility.yul\":4602:4690   */\n      mstore\n        /* \"#utility.yul\":4709:4713   */\n      0x12\n        /* \"#utility.yul\":4706:4707   */\n      0x04\n        /* \"#utility.yul\":4699:4714   */\n      mstore\n        /* \"#utility.yul\":4733:4737   */\n      0x24\n        /* \"#utility.yul\":4730:4731   */\n      0x00\n        /* \"#utility.yul\":4723:4738   */\n      revert\n        /* \"#utility.yul\":4750:4935   */\n    tag_42:\n        /* \"#utility.yul\":4790:4791   */\n      0x00\n        /* \"#utility.yul\":4807:4827   */\n      tag_129\n        /* \"#utility.yul\":4825:4826   */\n      dup3\n        /* \"#utility.yul\":4807:4827   */\n      tag_51\n      jump\t// in\n    tag_129:\n        /* \"#utility.yul\":4802:4827   */\n      swap2\n      pop\n        /* \"#utility.yul\":4841:4861   */\n      tag_130\n        /* \"#utility.yul\":4859:4860   */\n      dup4\n        /* \"#utility.yul\":4841:4861   */\n      tag_51\n      jump\t// in\n    tag_130:\n        /* \"#utility.yul\":4836:4861   */\n      swap3\n      pop\n        /* \"#utility.yul\":4880:4881   */\n      dup3\n        /* \"#utility.yul\":4870:4905   */\n      tag_131\n      jumpi\n        /* \"#utility.yul\":4885:4903   */\n      tag_132\n      tag_67\n      jump\t// in\n    tag_132:\n        /* \"#utility.yul\":4870:4905   */\n    tag_131:\n        /* \"#utility.yul\":4927:4928   */\n      dup3\n        /* \"#utility.yul\":4924:4925   */\n      dup3\n        /* \"#utility.yul\":4920:4929   */\n      div\n        /* \"#utility.yul\":4915:4929   */\n      swap1\n      pop\n        /* \"#utility.yul\":4750:4935   */\n      swap3\n      swap2\n      pop\n      pop\n      jump\t// out\n        /* \"#utility.yul\":4941:5046   */\n    tag_68:\n        /* \"#utility.yul\":4977:4984   */\n      0x00\n        /* \"#utility.yul\":5017:5039   */\n      0xffffffffffffffffffff\n        /* \"#utility.yul\":5010:5015   */\n      dup3\n        /* \"#utility.yul\":5006:5040   */\n      and\n        /* \"#utility.yul\":4995:5040   */\n      swap1\n      pop\n        /* \"#utility.yul\":4941:5046   */\n      swap2\n      swap1\n      pop\n      jump\t// out\n        /* \"#utility.yul\":5052:5172   */\n    tag_69:\n        /* \"#utility.yul\":5124:5147   */\n      tag_135\n        /* \"#utility.yul\":5141:5146   */\n      dup2\n        /* \"#utility.yul\":5124:5147   */\n      tag_68\n      jump\t// in\n    tag_135:\n        /* \"#utility.yul\":5117:5122   */\n      dup2\n        /* \"#utility.yul\":5114:5148   */\n      eq\n        /* \"#utility.yul\":5104:5166   */\n      tag_136\n      jumpi\n        /* \"#utility.yul\":5162:5163   */\n      0x00\n        /* \"#utility.yul\":5159:5160   */\n      dup1\n        /* \"#utility.yul\":5152:5164   */\n      revert\n        /* \"#utility.yul\":5104:5166   */\n    tag_136:\n        /* \"#utility.yul\":5052:5172   */\n      pop\n      jump\t// out\n        /* \"#utility.yul\":5178:5319   */\n    tag_70:\n        /* \"#utility.yul\":5234:5239   */\n      0x00\n        /* \"#utility.yul\":5265:5271   */\n      dup2\n        /* \"#utility.yul\":5259:5272   */\n      mload\n        /* \"#utility.yul\":5250:5272   */\n      swap1\n      pop\n        /* \"#utility.yul\":5281:5313   */\n      tag_138\n        /* \"#utility.yul\":5307:5312   */\n      dup2\n        /* \"#utility.yul\":5281:5313   */\n      tag_69\n      jump\t// in\n    tag_138:\n        /* \"#utility.yul\":5178:5319   */\n      swap3\n      swap2\n      pop\n      pop\n      jump\t// out\n        /* \"#utility.yul\":5325:5401   */\n    tag_71:\n        /* \"#utility.yul\":5361:5368   */\n      0x00\n        /* \"#utility.yul\":5390:5395   */\n      dup2\n        /* \"#utility.yul\":5379:5395   */\n      swap1\n      pop\n        /* \"#utility.yul\":5325:5401   */\n      swap2\n      swap1\n      pop\n      jump\t// out\n        /* \"#utility.yul\":5407:5527   */\n    tag_72:\n        /* \"#utility.yul\":5479:5502   */\n      tag_141\n        /* \"#utility.yul\":5496:5501   */\n      dup2\n        /* \"#utility.yul\":5479:5502   */\n      tag_71\n      jump\t// in\n    tag_141:\n        /* \"#utility.yul\":5472:5477   */\n      dup2\n        /* \"#utility.yul\":5469:5503   */\n      eq\n        /* \"#utility.yul\":5459:5521   */\n      tag_142\n      jumpi\n        /* \"#utility.yul\":5517:5518   */\n      0x00\n        /* \"#utility.yul\":5514:5515   */\n      dup1\n        /* \"#utility.yul\":5507:5519   */\n      revert\n        /* \"#utility.yul\":5459:5521   */\n    tag_142:\n        /* \"#utility.yul\":5407:5527   */\n      pop\n      jump\t// out\n        /* \"#utility.yul\":5533:5674   */\n    tag_73:\n        /* \"#utility.yul\":5589:5594   */\n      0x00\n        /* \"#utility.yul\":5620:5626   */\n      dup2\n        /* \"#utility.yul\":5614:5627   */\n      mload\n        /* \"#utility.yul\":5605:5627   */\n      swap1\n      pop\n        /* \"#utility.yul\":5636:5668   */\n      tag_144\n        /* \"#utility.yul\":5662:5667   */\n      dup2\n        /* \"#utility.yul\":5636:5668   */\n      tag_72\n      jump\t// in\n    tag_144:\n        /* \"#utility.yul\":5533:5674   */\n      swap3\n      swap2\n      pop\n      pop\n      jump\t// out\n        /* \"#utility.yul\":5680:5823   */\n    tag_74:\n        /* \"#utility.yul\":5737:5742   */\n      0x00\n        /* \"#utility.yul\":5768:5774   */\n      dup2\n        /* \"#utility.yul\":5762:5775   */\n      mload\n        /* \"#utility.yul\":5753:5775   */\n      swap1\n      pop\n        /* \"#utility.yul\":5784:5817   */\n      tag_146\n        /* \"#utility.yul\":5811:5816   */\n      dup2\n        /* \"#utility.yul\":5784:5817   */\n      tag_60\n      jump\t// in\n    tag_146:\n        /* \"#utility.yul\":5680:5823   */\n      swap3\n      swap2\n      pop\n      pop\n      jump\t// out\n        /* \"#utility.yul\":5829:6800   */\n    tag_48:\n        /* \"#utility.yul\":5932:5938   */\n      0x00\n        /* \"#utility.yul\":5940:5946   */\n      dup1\n        /* \"#utility.yul\":5948:5954   */\n      0x00\n        /* \"#utility.yul\":5956:5962   */\n      dup1\n        /* \"#utility.yul\":5964:5970   */\n      0x00\n        /* \"#utility.yul\":6013:6016   */\n      0xa0\n        /* \"#utility.yul\":6001:6010   */\n      dup7\n        /* \"#utility.yul\":5992:5999   */\n      dup9\n        /* \"#utility.yul\":5988:6011   */\n      sub\n        /* \"#utility.yul\":5984:6017   */\n      slt\n        /* \"#utility.yul\":5981:6101   */\n      iszero\n      tag_148\n      jumpi\n        /* \"#utility.yul\":6020:6099   */\n      tag_149\n      tag_54\n      jump\t// in\n    tag_149:\n        /* \"#utility.yul\":5981:6101   */\n    tag_148:\n        /* \"#utility.yul\":6140:6141   */\n      0x00\n        /* \"#utility.yul\":6165:6228   */\n      tag_150\n        /* \"#utility.yul\":6220:6227   */\n      dup9\n        /* \"#utility.yul\":6211:6217   */\n      dup3\n        /* \"#utility.yul\":6200:6209   */\n      dup10\n        /* \"#utility.yul\":6196:6218   */\n      add\n        /* \"#utility.yul\":6165:6228   */\n      tag_70\n      jump\t// in\n    tag_150:\n        /* \"#utility.yul\":6155:6228   */\n      swap6\n      pop\n        /* \"#utility.yul\":6111:6238   */\n      pop\n        /* \"#utility.yul\":6277:6279   */\n      0x20\n        /* \"#utility.yul\":6303:6366   */\n      tag_151\n        /* \"#utility.yul\":6358:6365   */\n      dup9\n        /* \"#utility.yul\":6349:6355   */\n      dup3\n        /* \"#utility.yul\":6338:6347   */\n      dup10\n        /* \"#utility.yul\":6334:6356   */\n      add\n        /* \"#utility.yul\":6303:6366   */\n      tag_73\n      jump\t// in\n    tag_151:\n        /* \"#utility.yul\":6293:6366   */\n      swap5\n      pop\n        /* \"#utility.yul\":6248:6376   */\n      pop\n        /* \"#utility.yul\":6415:6417   */\n      0x40\n        /* \"#utility.yul\":6441:6505   */\n      tag_152\n        /* \"#utility.yul\":6497:6504   */\n      dup9\n        /* \"#utility.yul\":6488:6494   */\n      dup3\n        /* \"#utility.yul\":6477:6486   */\n      dup10\n        /* \"#utility.yul\":6473:6495   */\n      add\n        /* \"#utility.yul\":6441:6505   */\n      tag_74\n      jump\t// in\n    tag_152:\n        /* \"#utility.yul\":6431:6505   */\n      swap4\n      pop\n        /* \"#utility.yul\":6386:6515   */\n      pop\n        /* \"#utility.yul\":6554:6556   */\n      0x60\n        /* \"#utility.yul\":6580:6644   */\n      tag_153\n        /* \"#utility.yul\":6636:6643   */\n      dup9\n        /* \"#utility.yul\":6627:6633   */\n      dup3\n        /* \"#utility.yul\":6616:6625   */\n      dup10\n        /* \"#utility.yul\":6612:6634   */\n      add\n        /* \"#utility.yul\":6580:6644   */\n      tag_74\n      jump\t// in\n    tag_153:\n        /* \"#utility.yul\":6570:6644   */\n      swap3\n      pop\n        /* \"#utility.yul\":6525:6654   */\n      pop\n        /* \"#utility.yul\":6693:6696   */\n      0x80\n        /* \"#utility.yul\":6720:6783   */\n      tag_154\n        /* \"#utility.yul\":6775:6782   */\n      dup9\n        /* \"#utility.yul\":6766:6772   */\n      dup3\n        /* \"#utility.yul\":6755:6764   */\n      dup10\n        /* \"#utility.yul\":6751:6773   */\n      add\n        /* \"#utility.yul\":6720:6783   */\n      tag_70\n      jump\t// in\n    tag_154:\n        /* \"#utility.yul\":6710:6783   */\n      swap2\n      pop\n        /* \"#utility.yul\":6664:6793   */\n      pop\n        /* \"#utility.yul\":5829:6800   */\n      swap3\n      swap6\n      pop\n      swap3\n      swap6\n      swap1\n      swap4\n      pop\n      jump\t// out\n        /* \"#utility.yul\":6806:7797   */\n    tag_50:\n        /* \"#utility.yul\":6845:6852   */\n      0x00\n        /* \"#utility.yul\":6868:6887   */\n      tag_156\n        /* \"#utility.yul\":6885:6886   */\n      dup3\n        /* \"#utility.yul\":6868:6887   */\n      tag_71\n      jump\t// in\n    tag_156:\n        /* \"#utility.yul\":6863:6887   */\n      swap2\n      pop\n        /* \"#utility.yul\":6901:6920   */\n      tag_157\n        /* \"#utility.yul\":6918:6919   */\n      dup4\n        /* \"#utility.yul\":6901:6920   */\n      tag_71\n      jump\t// in\n    tag_157:\n        /* \"#utility.yul\":6896:6920   */\n      swap3\n      pop\n        /* \"#utility.yul\":7102:7103   */\n      dup3\n        /* \"#utility.yul\":7034:7100   */\n      0x7fffffffffffffffffffffffffffffffffffffffffffffffffffffffffffffff\n        /* \"#utility.yul\":7030:7104   */\n      div\n        /* \"#utility.yul\":7027:7028   */\n      dup3\n        /* \"#utility.yul\":7024:7105   */\n      gt\n        /* \"#utility.yul\":7019:7020   */\n      0x00\n        /* \"#utility.yul\":7016:7017   */\n      dup5\n        /* \"#utility.yul\":7012:7021   */\n      sgt\n        /* \"#utility.yul\":7008:7009   */\n      0x00\n        /* \"#utility.yul\":7005:7006   */\n      dup5\n        /* \"#utility.yul\":7001:7010   */\n      sgt\n        /* \"#utility.yul\":6997:7022   */\n      and\n        /* \"#utility.yul\":6993:7106   */\n      and\n        /* \"#utility.yul\":6990:7129   */\n      iszero\n      tag_158\n      jumpi\n        /* \"#utility.yul\":7109:7127   */\n      tag_159\n      tag_66\n      jump\t// in\n    tag_159:\n        /* \"#utility.yul\":6990:7129   */\n    tag_158:\n        /* \"#utility.yul\":7313:7314   */\n      dup2\n        /* \"#utility.yul\":7245:7311   */\n      0x8000000000000000000000000000000000000000000000000000000000000000\n        /* \"#utility.yul\":7240:7315   */\n      sdiv\n        /* \"#utility.yul\":7237:7238   */\n      dup4\n        /* \"#utility.yul\":7233:7316   */\n      slt\n        /* \"#utility.yul\":7228:7229   */\n      0x00\n        /* \"#utility.yul\":7225:7226   */\n      dup5\n        /* \"#utility.yul\":7221:7230   */\n      slt\n        /* \"#utility.yul\":7217:7218   */\n      0x00\n        /* \"#utility.yul\":7214:7215   */\n      dup5\n        /* \"#utility.yul\":7210:7219   */\n      sgt\n        /* \"#utility.yul\":7206:7231   */\n      and\n        /* \"#utility.yul\":7202:7317   */\n      and\n        /* \"#utility.yul\":7199:7340   */\n      iszero\n      tag_160\n      jumpi\n        /* \"#utility.yul\":7320:7338   */\n      tag_161\n      tag_66\n      jump\t// in\n    tag_161:\n        /* \"#utility.yul\":7199:7340   */\n    tag_160:\n        /* \"#utility.yul\":7524:7525   */\n      dup3\n        /* \"#utility.yul\":7456:7522   */\n      0x8000000000000000000000000000000000000000000000000000000000000000\n        /* \"#utility.yul\":7451:7526   */\n      sdiv\n        /* \"#utility.yul\":7448:7449   */\n      dup3\n        /* \"#utility.yul\":7444:7527   */\n      slt\n        /* \"#utility.yul\":7439:7440   */\n      0x00\n        /* \"#utility.yul\":7436:7437   */\n      dup5\n        /* \"#utility.yul\":7432:7441   */\n      sgt\n        /* \"#utility.yul\":7428:7429   */\n      0x00\n        /* \"#utility.yul\":7425:7426   */\n      dup5\n        /* \"#utility.yul\":7421:7430   */\n      slt\n        /* \"#utility.yul\":7417:7442   */\n      and\n        /* \"#utility.yul\":7413:7528   */\n      and\n        /* \"#utility.yul\":7410:7551   */\n      iszero\n      tag_162\n      jumpi\n        /* \"#utility.yul\":7531:7549   */\n      tag_163\n      tag_66\n      jump\t// in\n    tag_163:\n        /* \"#utility.yul\":7410:7551   */\n    tag_162:\n        /* \"#utility.yul\":7734:7735   */\n      dup3\n        /* \"#utility.yul\":7666:7732   */\n      0x7fffffffffffffffffffffffffffffffffffffffffffffffffffffffffffffff\n        /* \"#utility.yul\":7661:7736   */\n      sdiv\n        /* \"#utility.yul\":7658:7659   */\n      dup3\n        /* \"#utility.yul\":7654:7737   */\n      slt\n        /* \"#utility.yul\":7649:7650   */\n      0x00\n        /* \"#utility.yul\":7646:7647   */\n      dup5\n        /* \"#utility.yul\":7642:7651   */\n      slt\n        /* \"#utility.yul\":7638:7639   */\n      0x00\n        /* \"#utility.yul\":7635:7636   */\n      dup5\n        /* \"#utility.yul\":7631:7640   */\n      slt\n        /* \"#utility.yul\":7627:7652   */\n      and\n        /* \"#utility.yul\":7623:7738   */\n      and\n        /* \"#utility.yul\":7620:7761   */\n      iszero\n      tag_164\n      jumpi\n        /* \"#utility.yul\":7741:7759   */\n      tag_165\n      tag_66\n      jump\t// in\n    tag_165:\n        /* \"#utility.yul\":7620:7761   */\n    tag_164:\n        /* \"#utility.yul\":7789:7790   */\n      dup3\n        /* \"#utility.yul\":7786:7787   */\n      dup3\n        /* \"#utility.yul\":7782:7791   */\n      mul\n        /* \"#utility.yul\":7771:7791   */\n      swap1\n      pop\n        /* \"#utility.yul\":6806:7797   */\n      swap3\n      swap2\n      pop\n      pop\n      jump\t// out\n\n    auxdata: 0xa2646970667358221220fa4a5186c186ef968f741aec98cadb83eb20d75a60e03da211b61ebdfbebe96564736f6c63430008090033\n}\n",
				"bytecode": {
					"linkReferences": {},
					"object": "6080604052674563918244f4000060005534801561001c57600080fd5b5061083e8061002c6000396000f3fe60806040526004361061003f5760003560e01c80632578b86a146100445780633e47d6f31461006f578063b60d4288146100ac578063dc0d3dff146100b6575b600080fd5b34801561005057600080fd5b506100596100f3565b60405161006691906102ff565b60405180910390f35b34801561007b57600080fd5b506100966004803603810190610091919061037d565b6100f9565b6040516100a391906102ff565b60405180910390f35b6100b4610111565b005b3480156100c257600080fd5b506100dd60048036038101906100d891906103d6565b6101b5565b6040516100ea9190610412565b60405180910390f35b60005481565b60026020528060005260406000206000915090505481565b60005461011d346101f4565b1161015d576040517f08c379a00000000000000000000000000000000000000000000000000000000081526004016101549061048a565b60405180910390fd5b34600260003373ffffffffffffffffffffffffffffffffffffffff1673ffffffffffffffffffffffffffffffffffffffff16815260200190815260200160002060008282546101ac91906104d9565b92505081905550565b600181815481106101c557600080fd5b906000526020600020016000915054906101000a900473ffffffffffffffffffffffffffffffffffffffff1681565b6000806101ff61022e565b90506000670de0b6b3a76400008483610218919061052f565b61022291906105b8565b90508092505050919050565b60008073694aa1769357215de4fac081bf1f309adc325306905060008173ffffffffffffffffffffffffffffffffffffffff1663feaf968c6040518163ffffffff1660e01b815260040160a06040518083038186803b15801561029057600080fd5b505afa1580156102a4573d6000803e3d6000fd5b505050506040513d601f19601f820116820180604052508101906102c89190610676565b5050509150506402540be400816102df91906106f1565b9250505090565b6000819050919050565b6102f9816102e6565b82525050565b600060208201905061031460008301846102f0565b92915050565b600080fd5b600073ffffffffffffffffffffffffffffffffffffffff82169050919050565b600061034a8261031f565b9050919050565b61035a8161033f565b811461036557600080fd5b50565b60008135905061037781610351565b92915050565b6000602082840312156103935761039261031a565b5b60006103a184828501610368565b91505092915050565b6103b3816102e6565b81146103be57600080fd5b50565b6000813590506103d0816103aa565b92915050565b6000602082840312156103ec576103eb61031a565b5b60006103fa848285016103c1565b91505092915050565b61040c8161033f565b82525050565b60006020820190506104276000830184610403565b92915050565b600082825260208201905092915050565b7f6e6f7420656e6f75676820657468000000000000000000000000000000000000600082015250565b6000610474600e8361042d565b915061047f8261043e565b602082019050919050565b600060208201905081810360008301526104a381610467565b9050919050565b7f4e487b7100000000000000000000000000000000000000000000000000000000600052601160045260246000fd5b60006104e4826102e6565b91506104ef836102e6565b9250827fffffffffffffffffffffffffffffffffffffffffffffffffffffffffffffffff03821115610524576105236104aa565b5b828201905092915050565b600061053a826102e6565b9150610545836102e6565b9250817fffffffffffffffffffffffffffffffffffffffffffffffffffffffffffffffff048311821515161561057e5761057d6104aa565b5b828202905092915050565b7f4e487b7100000000000000000000000000000000000000000000000000000000600052601260045260246000fd5b60006105c3826102e6565b91506105ce836102e6565b9250826105de576105dd610589565b5b828204905092915050565b600069ffffffffffffffffffff82169050919050565b610608816105e9565b811461061357600080fd5b50565b600081519050610625816105ff565b92915050565b6000819050919050565b61063e8161062b565b811461064957600080fd5b50565b60008151905061065b81610635565b92915050565b600081519050610670816103aa565b92915050565b600080600080600060a086880312156106925761069161031a565b5b60006106a088828901610616565b95505060206106b18882890161064c565b94505060406106c288828901610661565b93505060606106d388828901610661565b92505060806106e488828901610616565b9150509295509295909350565b60006106fc8261062b565b91506107078361062b565b9250827f7fffffffffffffffffffffffffffffffffffffffffffffffffffffffffffffff0482116000841360008413161615610746576107456104aa565b5b817f80000000000000000000000000000000000000000000000000000000000000000583126000841260008413161615610783576107826104aa565b5b827f800000000000000000000000000000000000000000000000000000000000000005821260008413600084121616156107c0576107bf6104aa565b5b827f7fffffffffffffffffffffffffffffffffffffffffffffffffffffffffffffff05821260008412600084121616156107fd576107fc6104aa565b5b82820290509291505056fea2646970667358221220fa4a5186c186ef968f741aec98cadb83eb20d75a60e03da211b61ebdfbebe96564736f6c63430008090033",
					"opcodes": "PUSH1 0x80 PUSH1 0x40 MSTORE PUSH8 0x4563918244F40000 PUSH1 0x0 SSTORE CALLVALUE DUP1 ISZERO PUSH2 0x1C JUMPI PUSH1 0x0 DUP1 REVERT JUMPDEST POP PUSH2 0x83E DUP1 PUSH2 0x2C PUSH1 0x0 CODECOPY PUSH1 0x0 RETURN INVALID PUSH1 0x80 PUSH1 0x40 MSTORE PUSH1 0x4 CALLDATASIZE LT PUSH2 0x3F JUMPI PUSH1 0x0 CALLDATALOAD PUSH1 0xE0 SHR DUP1 PUSH4 0x2578B86A EQ PUSH2 0x44 JUMPI DUP1 PUSH4 0x3E47D6F3 EQ PUSH2 0x6F JUMPI DUP1 PUSH4 0xB60D4288 EQ PUSH2 0xAC JUMPI DUP1 PUSH4 0xDC0D3DFF EQ PUSH2 0xB6 JUMPI JUMPDEST PUSH1 0x0 DUP1 REVERT JUMPDEST CALLVALUE DUP1 ISZERO PUSH2 0x50 JUMPI PUSH1 0x0 DUP1 REVERT JUMPDEST POP PUSH2 0x59 PUSH2 0xF3 JUMP JUMPDEST PUSH1 0x40 MLOAD PUSH2 0x66 SWAP2 SWAP1 PUSH2 0x2FF JUMP JUMPDEST PUSH1 0x40 MLOAD DUP1 SWAP2 SUB SWAP1 RETURN JUMPDEST CALLVALUE DUP1 ISZERO PUSH2 0x7B JUMPI PUSH1 0x0 DUP1 REVERT JUMPDEST POP PUSH2 0x96 PUSH1 0x4 DUP1 CALLDATASIZE SUB DUP2 ADD SWAP1 PUSH2 0x91 SWAP2 SWAP1 PUSH2 0x37D JUMP JUMPDEST PUSH2 0xF9 JUMP JUMPDEST PUSH1 0x40 MLOAD PUSH2 0xA3 SWAP2 SWAP1 PUSH2 0x2FF JUMP JUMPDEST PUSH1 0x40 MLOAD DUP1 SWAP2 SUB SWAP1 RETURN JUMPDEST PUSH2 0xB4 PUSH2 0x111 JUMP JUMPDEST STOP JUMPDEST CALLVALUE DUP1 ISZERO PUSH2 0xC2 JUMPI PUSH1 0x0 DUP1 REVERT JUMPDEST POP PUSH2 0xDD PUSH1 0x4 DUP1 CALLDATASIZE SUB DUP2 ADD SWAP1 PUSH2 0xD8 SWAP2 SWAP1 PUSH2 0x3D6 JUMP JUMPDEST PUSH2 0x1B5 JUMP JUMPDEST PUSH1 0x40 MLOAD PUSH2 0xEA SWAP2 SWAP1 PUSH2 0x412 JUMP JUMPDEST PUSH1 0x40 MLOAD DUP1 SWAP2 SUB SWAP1 RETURN JUMPDEST PUSH1 0x0 SLOAD DUP2 JUMP JUMPDEST PUSH1 0x2 PUSH1 0x20 MSTORE DUP1 PUSH1 0x0 MSTORE PUSH1 0x40 PUSH1 0x0 KECCAK256 PUSH1 0x0 SWAP2 POP SWAP1 POP SLOAD DUP2 JUMP JUMPDEST PUSH1 0x0 SLOAD PUSH2 0x11D CALLVALUE PUSH2 0x1F4 JUMP JUMPDEST GT PUSH2 0x15D JUMPI PUSH1 0x40 MLOAD PUSH32 0x8C379A000000000000000000000000000000000000000000000000000000000 DUP2 MSTORE PUSH1 0x4 ADD PUSH2 0x154 SWAP1 PUSH2 0x48A JUMP JUMPDEST PUSH1 0x40 MLOAD DUP1 SWAP2 SUB SWAP1 REVERT JUMPDEST CALLVALUE PUSH1 0x2 PUSH1 0x0 CALLER PUSH20 0xFFFFFFFFFFFFFFFFFFFFFFFFFFFFFFFFFFFFFFFF AND PUSH20 0xFFFFFFFFFFFFFFFFFFFFFFFFFFFFFFFFFFFFFFFF AND DUP2 MSTORE PUSH1 0x20 ADD SWAP1 DUP2 MSTORE PUSH1 0x20 ADD PUSH1 0x0 KECCAK256 PUSH1 0x0 DUP3 DUP3 SLOAD PUSH2 0x1AC SWAP2 SWAP1 PUSH2 0x4D9 JUMP JUMPDEST SWAP3 POP POP DUP2 SWAP1 SSTORE POP JUMP JUMPDEST PUSH1 0x1 DUP2 DUP2 SLOAD DUP2 LT PUSH2 0x1C5 JUMPI PUSH1 0x0 DUP1 REVERT JUMPDEST SWAP1 PUSH1 0x0 MSTORE PUSH1 0x20 PUSH1 0x0 KECCAK256 ADD PUSH1 0x0 SWAP2 POP SLOAD SWAP1 PUSH2 0x100 EXP SWAP1 DIV PUSH20 0xFFFFFFFFFFFFFFFFFFFFFFFFFFFFFFFFFFFFFFFF AND DUP2 JUMP JUMPDEST PUSH1 0x0 DUP1 PUSH2 0x1FF PUSH2 0x22E JUMP JUMPDEST SWAP1 POP PUSH1 0x0 PUSH8 0xDE0B6B3A7640000 DUP5 DUP4 PUSH2 0x218 SWAP2 SWAP1 PUSH2 0x52F JUMP JUMPDEST PUSH2 0x222 SWAP2 SWAP1 PUSH2 0x5B8 JUMP JUMPDEST SWAP1 POP DUP1 SWAP3 POP POP POP SWAP2 SWAP1 POP JUMP JUMPDEST PUSH1 0x0 DUP1 PUSH20 0x694AA1769357215DE4FAC081BF1F309ADC325306 SWAP1 POP PUSH1 0x0 DUP2 PUSH20 0xFFFFFFFFFFFFFFFFFFFFFFFFFFFFFFFFFFFFFFFF AND PUSH4 0xFEAF968C PUSH1 0x40 MLOAD DUP2 PUSH4 0xFFFFFFFF AND PUSH1 0xE0 SHL DUP2 MSTORE PUSH1 0x4 ADD PUSH1 0xA0 PUSH1 0x40 MLOAD DUP1 DUP4 SUB DUP2 DUP7 DUP1 EXTCODESIZE ISZERO DUP1 ISZERO PUSH2 0x290 JUMPI PUSH1 0x0 DUP1 REVERT JUMPDEST POP GAS STATICCALL ISZERO DUP1 ISZERO PUSH2 0x2A4 JUMPI RETURNDATASIZE PUSH1 0x0 DUP1 RETURNDATACOPY RETURNDATASIZE PUSH1 0x0 REVERT JUMPDEST POP POP POP POP PUSH1 0x40 MLOAD RETURNDATASIZE PUSH1 0x1F NOT PUSH1 0x1F DUP3 ADD AND DUP3 ADD DUP1 PUSH1 0x40 MSTORE POP DUP2 ADD SWAP1 PUSH2 0x2C8 SWAP2 SWAP1 PUSH2 0x676 JUMP JUMPDEST POP POP POP SWAP2 POP POP PUSH5 0x2540BE400 DUP2 PUSH2 0x2DF SWAP2 SWAP1 PUSH2 0x6F1 JUMP JUMPDEST SWAP3 POP POP POP SWAP1 JUMP JUMPDEST PUSH1 0x0 DUP2 SWAP1 POP SWAP2 SWAP1 POP JUMP JUMPDEST PUSH2 0x2F9 DUP2 PUSH2 0x2E6 JUMP JUMPDEST DUP3 MSTORE POP POP JUMP JUMPDEST PUSH1 0x0 PUSH1 0x20 DUP3 ADD SWAP1 POP PUSH2 0x314 PUSH1 0x0 DUP4 ADD DUP5 PUSH2 0x2F0 JUMP JUMPDEST SWAP3 SWAP2 POP POP JUMP JUMPDEST PUSH1 0x0 DUP1 REVERT JUMPDEST PUSH1 0x0 PUSH20 0xFFFFFFFFFFFFFFFFFFFFFFFFFFFFFFFFFFFFFFFF DUP3 AND SWAP1 POP SWAP2 SWAP1 POP JUMP JUMPDEST PUSH1 0x0 PUSH2 0x34A DUP3 PUSH2 0x31F JUMP JUMPDEST SWAP1 POP SWAP2 SWAP1 POP JUMP JUMPDEST PUSH2 0x35A DUP2 PUSH2 0x33F JUMP JUMPDEST DUP2 EQ PUSH2 0x365 JUMPI PUSH1 0x0 DUP1 REVERT JUMPDEST POP JUMP JUMPDEST PUSH1 0x0 DUP2 CALLDATALOAD SWAP1 POP PUSH2 0x377 DUP2 PUSH2 0x351 JUMP JUMPDEST SWAP3 SWAP2 POP POP JUMP JUMPDEST PUSH1 0x0 PUSH1 0x20 DUP3 DUP5 SUB SLT ISZERO PUSH2 0x393 JUMPI PUSH2 0x392 PUSH2 0x31A JUMP JUMPDEST JUMPDEST PUSH1 0x0 PUSH2 0x3A1 DUP5 DUP3 DUP6 ADD PUSH2 0x368 JUMP JUMPDEST SWAP2 POP POP SWAP3 SWAP2 POP POP JUMP JUMPDEST PUSH2 0x3B3 DUP2 PUSH2 0x2E6 JUMP JUMPDEST DUP2 EQ PUSH2 0x3BE JUMPI PUSH1 0x0 DUP1 REVERT JUMPDEST POP JUMP JUMPDEST PUSH1 0x0 DUP2 CALLDATALOAD SWAP1 POP PUSH2 0x3D0 DUP2 PUSH2 0x3AA JUMP JUMPDEST SWAP3 SWAP2 POP POP JUMP JUMPDEST PUSH1 0x0 PUSH1 0x20 DUP3 DUP5 SUB SLT ISZERO PUSH2 0x3EC JUMPI PUSH2 0x3EB PUSH2 0x31A JUMP JUMPDEST JUMPDEST PUSH1 0x0 PUSH2 0x3FA DUP5 DUP3 DUP6 ADD PUSH2 0x3C1 JUMP JUMPDEST SWAP2 POP POP SWAP3 SWAP2 POP POP JUMP JUMPDEST PUSH2 0x40C DUP2 PUSH2 0x33F JUMP JUMPDEST DUP3 MSTORE POP POP JUMP JUMPDEST PUSH1 0x0 PUSH1 0x20 DUP3 ADD SWAP1 POP PUSH2 0x427 PUSH1 0x0 DUP4 ADD DUP5 PUSH2 0x403 JUMP JUMPDEST SWAP3 SWAP2 POP POP JUMP JUMPDEST PUSH1 0x0 DUP3 DUP3 MSTORE PUSH1 0x20 DUP3 ADD SWAP1 POP SWAP3 SWAP2 POP POP JUMP JUMPDEST PUSH32 0x6E6F7420656E6F75676820657468000000000000000000000000000000000000 PUSH1 0x0 DUP3 ADD MSTORE POP JUMP JUMPDEST PUSH1 0x0 PUSH2 0x474 PUSH1 0xE DUP4 PUSH2 0x42D JUMP JUMPDEST SWAP2 POP PUSH2 0x47F DUP3 PUSH2 0x43E JUMP JUMPDEST PUSH1 0x20 DUP3 ADD SWAP1 POP SWAP2 SWAP1 POP JUMP JUMPDEST PUSH1 0x0 PUSH1 0x20 DUP3 ADD SWAP1 POP DUP2 DUP2 SUB PUSH1 0x0 DUP4 ADD MSTORE PUSH2 0x4A3 DUP2 PUSH2 0x467 JUMP JUMPDEST SWAP1 POP SWAP2 SWAP1 POP JUMP JUMPDEST PUSH32 0x4E487B7100000000000000000000000000000000000000000000000000000000 PUSH1 0x0 MSTORE PUSH1 0x11 PUSH1 0x4 MSTORE PUSH1 0x24 PUSH1 0x0 REVERT JUMPDEST PUSH1 0x0 PUSH2 0x4E4 DUP3 PUSH2 0x2E6 JUMP JUMPDEST SWAP2 POP PUSH2 0x4EF DUP4 PUSH2 0x2E6 JUMP JUMPDEST SWAP3 POP DUP3 PUSH32 0xFFFFFFFFFFFFFFFFFFFFFFFFFFFFFFFFFFFFFFFFFFFFFFFFFFFFFFFFFFFFFFFF SUB DUP3 GT ISZERO PUSH2 0x524 JUMPI PUSH2 0x523 PUSH2 0x4AA JUMP JUMPDEST JUMPDEST DUP3 DUP3 ADD SWAP1 POP SWAP3 SWAP2 POP POP JUMP JUMPDEST PUSH1 0x0 PUSH2 0x53A DUP3 PUSH2 0x2E6 JUMP JUMPDEST SWAP2 POP PUSH2 0x545 DUP4 PUSH2 0x2E6 JUMP JUMPDEST SWAP3 POP DUP2 PUSH32 0xFFFFFFFFFFFFFFFFFFFFFFFFFFFFFFFFFFFFFFFFFFFFFFFFFFFFFFFFFFFFFFFF DIV DUP4 GT DUP3 ISZERO ISZERO AND ISZERO PUSH2 0x57E JUMPI PUSH2 0x57D PUSH2 0x4AA JUMP JUMPDEST JUMPDEST DUP3 DUP3 MUL SWAP1 POP SWAP3 SWAP2 POP POP JUMP JUMPDEST PUSH32 0x4E487B7100000000000000000000000000000000000000000000000000000000 PUSH1 0x0 MSTORE PUSH1 0x12 PUSH1 0x4 MSTORE PUSH1 0x24 PUSH1 0x0 REVERT JUMPDEST PUSH1 0x0 PUSH2 0x5C3 DUP3 PUSH2 0x2E6 JUMP JUMPDEST SWAP2 POP PUSH2 0x5CE DUP4 PUSH2 0x2E6 JUMP JUMPDEST SWAP3 POP DUP3 PUSH2 0x5DE JUMPI PUSH2 0x5DD PUSH2 0x589 JUMP JUMPDEST JUMPDEST DUP3 DUP3 DIV SWAP1 POP SWAP3 SWAP2 POP POP JUMP JUMPDEST PUSH1 0x0 PUSH10 0xFFFFFFFFFFFFFFFFFFFF DUP3 AND SWAP1 POP SWAP2 SWAP1 POP JUMP JUMPDEST PUSH2 0x608 DUP2 PUSH2 0x5E9 JUMP JUMPDEST DUP2 EQ PUSH2 0x613 JUMPI PUSH1 0x0 DUP1 REVERT JUMPDEST POP JUMP JUMPDEST PUSH1 0x0 DUP2 MLOAD SWAP1 POP PUSH2 0x625 DUP2 PUSH2 0x5FF JUMP JUMPDEST SWAP3 SWAP2 POP POP JUMP JUMPDEST PUSH1 0x0 DUP2 SWAP1 POP SWAP2 SWAP1 POP JUMP JUMPDEST PUSH2 0x63E DUP2 PUSH2 0x62B JUMP JUMPDEST DUP2 EQ PUSH2 0x649 JUMPI PUSH1 0x0 DUP1 REVERT JUMPDEST POP JUMP JUMPDEST PUSH1 0x0 DUP2 MLOAD SWAP1 POP PUSH2 0x65B DUP2 PUSH2 0x635 JUMP JUMPDEST SWAP3 SWAP2 POP POP JUMP JUMPDEST PUSH1 0x0 DUP2 MLOAD SWAP1 POP PUSH2 0x670 DUP2 PUSH2 0x3AA JUMP JUMPDEST SWAP3 SWAP2 POP POP JUMP JUMPDEST PUSH1 0x0 DUP1 PUSH1 0x0 DUP1 PUSH1 0x0 PUSH1 0xA0 DUP7 DUP9 SUB SLT ISZERO PUSH2 0x692 JUMPI PUSH2 0x691 PUSH2 0x31A JUMP JUMPDEST JUMPDEST PUSH1 0x0 PUSH2 0x6A0 DUP9 DUP3 DUP10 ADD PUSH2 0x616 JUMP JUMPDEST SWAP6 POP POP PUSH1 0x20 PUSH2 0x6B1 DUP9 DUP3 DUP10 ADD PUSH2 0x64C JUMP JUMPDEST SWAP5 POP POP PUSH1 0x40 PUSH2 0x6C2 DUP9 DUP3 DUP10 ADD PUSH2 0x661 JUMP JUMPDEST SWAP4 POP POP PUSH1 0x60 PUSH2 0x6D3 DUP9 DUP3 DUP10 ADD PUSH2 0x661 JUMP JUMPDEST SWAP3 POP POP PUSH1 0x80 PUSH2 0x6E4 DUP9 DUP3 DUP10 ADD PUSH2 0x616 JUMP JUMPDEST SWAP2 POP POP SWAP3 SWAP6 POP SWAP3 SWAP6 SWAP1 SWAP4 POP JUMP JUMPDEST PUSH1 0x0 PUSH2 0x6FC DUP3 PUSH2 0x62B JUMP JUMPDEST SWAP2 POP PUSH2 0x707 DUP4 PUSH2 0x62B JUMP JUMPDEST SWAP3 POP DUP3 PUSH32 0x7FFFFFFFFFFFFFFFFFFFFFFFFFFFFFFFFFFFFFFFFFFFFFFFFFFFFFFFFFFFFFFF DIV DUP3 GT PUSH1 0x0 DUP5 SGT PUSH1 0x0 DUP5 SGT AND AND ISZERO PUSH2 0x746 JUMPI PUSH2 0x745 PUSH2 0x4AA JUMP JUMPDEST JUMPDEST DUP2 PUSH32 0x8000000000000000000000000000000000000000000000000000000000000000 SDIV DUP4 SLT PUSH1 0x0 DUP5 SLT PUSH1 0x0 DUP5 SGT AND AND ISZERO PUSH2 0x783 JUMPI PUSH2 0x782 PUSH2 0x4AA JUMP JUMPDEST JUMPDEST DUP3 PUSH32 0x8000000000000000000000000000000000000000000000000000000000000000 SDIV DUP3 SLT PUSH1 0x0 DUP5 SGT PUSH1 0x0 DUP5 SLT AND AND ISZERO PUSH2 0x7C0 JUMPI PUSH2 0x7BF PUSH2 0x4AA JUMP JUMPDEST JUMPDEST DUP3 PUSH32 0x7FFFFFFFFFFFFFFFFFFFFFFFFFFFFFFFFFFFFFFFFFFFFFFFFFFFFFFFFFFFFFFF SDIV DUP3 SLT PUSH1 0x0 DUP5 SLT PUSH1 0x0 DUP5 SLT AND AND ISZERO PUSH2 0x7FD JUMPI PUSH2 0x7FC PUSH2 0x4AA JUMP JUMPDEST JUMPDEST DUP3 DUP3 MUL SWAP1 POP SWAP3 SWAP2 POP POP JUMP INVALID LOG2 PUSH5 0x6970667358 0x22 SLT KECCAK256 STATICCALL 0x4A MLOAD DUP7 0xC1 DUP7 0xEF SWAP7 DUP16 PUSH21 0x1AEC98CADB83EB20D75A60E03DA211B61EBDFBEBE9 PUSH6 0x64736F6C6343 STOP ADDMOD MULMOD STOP CALLER "
				},
				"gasEstimates": {
					"creation": {
						"codeDepositCost": "422000",
						"executionCost": "22561",
						"totalCost": "444561"
					},
					"external": {
						"addressToAmountFunded(address)": "2814",
						"fund()": "infinite",
						"funders(uint256)": "5000",
						"minusd()": "2407"
					}
				},
				"methodIdentifiers": {
					"addressToAmountFunded(address)": "3e47d6f3",
					"fund()": "b60d4288",
					"funders(uint256)": "dc0d3dff",
					"minusd()": "2578b86a"
				}
			},
			"storageLayout": {
				"storage": [
					{
						"astId": 55,
						"contract": "FundMe.sol:FundMe",
						"label": "minusd",
						"offset": 0,
						"slot": "0",
						"type": "t_uint256"
					},
					{
						"astId": 58,
						"contract": "FundMe.sol:FundMe",
						"label": "funders",
						"offset": 0,
						"slot": "1",
						"type": "t_array(t_address)dyn_storage"
					},
					{
						"astId": 62,
						"contract": "FundMe.sol:FundMe",
						"label": "addressToAmountFunded",
						"offset": 0,
						"slot": "2",
						"type": "t_mapping(t_address,t_uint256)"
					}
				],
				"types": {
					"t_address": {
						"encoding": "inplace",
						"label": "address",
						"numberOfBytes": "20"
					},
					"t_array(t_address)dyn_storage": {
						"base": "t_address",
						"encoding": "dynamic_array",
						"label": "address[]",
						"numberOfBytes": "32"
					},
					"t_mapping(t_address,t_uint256)": {
						"encoding": "mapping",
						"key": "t_address",
						"label": "mapping(address => uint256)",
						"numberOfBytes": "32",
						"value": "t_uint256"
					},
					"t_uint256": {
						"encoding": "inplace",
						"label": "uint256",
						"numberOfBytes": "32"
					}
				}
			},
			"userdoc": {
				"kind": "user",
				"methods": {},
				"version": 1
			}
		}
	}
}